:03000000020008F3
:0300610002000397
:05000300120B4F80FE0E
:0D00640090E60174EAF090E6F574FFF0906C
:0E0071000C4BE49390E6F3F0900C4CE493906B
:0D007F00E6C3F0900C4DE49390E6C1F090C4
:0E008C000C4EE49390E6C2F0900C50E493907A
:0E009A00E6C0F0900C51E49390E6F4F075AFE0
:0800A800077AA77B0B8B9A7A03
:0A00B000A77B0B7B008A9B759DE483
:0500BA00759E007A00B4
:0300BF00BA800004
:0E00C200500C90E67BE0FB90E67CF00A80EFAD
:0E00D00090E67174FFF075B4FF90E672E0FAEE
:0E00DE004480F043B68000000090E6C4E4F0D9
:0E00EC0000000090E6C5E4F0900C27E493902D
:0D00FA00E6C6F0900C28E49390E6C7F09065
:0E0107000C29E49390E6C8F0900C2AE4939043
:0D011500E6C9F0900C2BE49390E6CAF09040
:0E0122000C2CE49390E6CBF0900C2DE493901F
:0D013000E6CCF0900C2EE49390E6CDF0228A
:0E013D000000000000000000000000000000B4
:0B014B00000000000000000000002287
:04015600AA82AB834B
:09015A008A048B051ABAFF011B8F
:08016300EC4D60297C007D00D9
:0E016B00C3EC94E8ED940350E6C002C003C05C
:0E01790004C00512013DD005D004D003D00211
:0901870074032CFCE43DFD80DB57
:01019000224C
:0D01910090E6007410F090E61274A2F09059
:0E019E00E61374A0F090E61474A2F090E6153B
:0D01AC0074A0F090E6047480F00000009054
:0E01B900E6047402F000000090E6047404F006
:0D01C70000000090E6047406F000000090B7
:0E01D400E6047408F000000090E604E4F00079
:0E01E200000090E618E0FA54FEF000000090D5
:0E01F000E619E0FA54FEF000000090E61AE076
:0E01FE00FA54FEF000000090E61BE0FA54FEFA
:0E020C00F000000012006490E670E4F075B29D
:0E021A002B75800090E671E4F075B40075A0BD
:0D0228000075B51F75B000D2839000641200
:0A023500015675B65875B1587A00ED
:03023F00BA1000F2
:0E0242005013C00212013D53B1F712013DD01E
:070250000243B1080A80E837
:010257002284
:0E025800C28390006412015690E6F574FFF028
:0D02660000000090E6007402F0000000901F
:0E027300E6017480F000000090E61274A2F024
:0D02810000000090E61374A0F00000009053
:0E028E00E61474A2F000000090E61574A0F0D3
:0D029C0000000090E6187405F000000090CE
:0E02A900E6197405F000000090E61A7405F0E6
:0D02B70000000090E61B7405F000000090B0
:0E02C400E6047480F000000090E6047402F07E
:0D02D20000000090E6047404F000000090AD
:0E02DF00E6047406F000000090E6047408F0D7
:0E02ED0000000090E604E4F0000000758000C0
:0E02FB0075A00075B00075B10075B20075B445
:0D0309000075B50075B60090E670E4F09048
:0A031600E671F075B2017A007B0079
:0E032000C3EA9403EB9400504BD2807CB87D6E
:01032E000BC3
:0E032F00C002C003C004C00512013DD005D0BD
:0A033D0004D003D0021CBCFF011D18
:0A034700EC4D70E4C2817CB87D0B20
:0E035100C002C003C004C00512013DD005D09B
:0A035F0004D003D0021CBCFF011DF6
:0B036900EC4D70E40ABA00AF0B80AC52
:0303740075B2005F
:0E03770090E6A1E0FA20E10990E68D74FFF017
:0303850000000075
:0E03880090E6A3E0FA20E2E790E69174FFF021
:0503960000000080DC06
:0C039B00AA82740F5A900C5293F5822233
:0503A700AA82BA30003B
:0D03AC00400BEA24C64006EA24D0F5822268
:0303B900BA610026
:0D03BC00400BEA2499400674A92AF582221C
:0303C900BA410036
:0D03CC00400BEA24B9400674C92AF58222CC
:0403D9007582002207
:0E03DD00E582FA700B90E6C0744EF00000004E
:0203EB00801977
:0E03ED0090E6C0744AF000000090E440EAF090
:0B03FB0000000090E442EAF000000067
:0E04060090E7C0744FF000000090E7C1744B07
:0E041400F000000090E7C27420F0000000909D
:0E042200E7C37428F000000090E7C47454F0A3
:0E043000000000EAC4540FFB740F5BF582C09D
:0E043E000212039BAB82D00290E7C5EBF000E8
:0D044C000000740F5AF58212039BAA8290E3
:0E045900E7C6EAF000000090E7C77429F00043
:0C046700000090E68F7408F000000022F6
:0504730075B1587A008C
:03047800BA1000B7
:0E047B005013C00212013D53B1F712013DD0E3
:070489000243B1080A80E8FC
:0C04900090E6C0744EF0000000750800FB
:0E049C00C285C281C28075B01900000043B055
:0904AA000200000075B0007A00A8
:0A04B300EA2463FBE4340CFC7D80B6
:0E04BD008B828C838DF0120B87FB6012EA2479
:0E04CB00C0F582E434E7F583EBF00000000A90
:0204D90080D8C9
:0904DB0090E68FEAF00000002217
:0E04E400AA8290E7C0744FF000000090E7C1BC
:0E04F200744BF000000090E7C27420F0000090
:0E0500000090E7C37428F000000090E7C47478
:0D050E0057F00000008A8212039BAA829021
:0E051B00E7C5EAF000000090E7C67429F00082
:0C052900000090E68F7407F00000002234
:0E053500AA8290E7C07454F000000090E7C165
:0E0543007449F000000090E7C2744DF0000013
:0E0551000090E7C37445F000000090E7C4740A
:0E055F004FF000000090E7C57455F00000005A
:0E056D0090E7C67454F000000090E7C77421B8
:0E057B00F000000090E7C87420F0000000902F
:0E058900E7C97453F000000090E7CA743DF01B
:0D059700000000E5A0C4540FF582C0021260
:0E05A400039BAB82D00290E7CBEBF00000008F
:0E05B20090E7CC7420F000000090E7CD742894
:0E05C000F000000090E7CE7457F00000008AB3
:0E05CE008212039BAA8290E7CFEAF0000000A1
:0E05DC0090E7D07429F000000090E68F7411B3
:0505EA00F000000022FA
:0605EF00AA827B007C00E3
:0D05F500C3EB94E8EC9403504C7D007E00B5
:0E060200C3ED94E8EE94035038E5A0C4540F05
:09061000FFB502058A820204E430
:0E06190090E6A3E0FF20E21BD280C002C003E7
:0E062700C004C005C006120B0DD006D005D0D1
:0706350004D003D002C280D3
:07063C000DBD00C20E80BFDE
:070643000BBB00AE0C80AB05
:05064A008A8202053563
:0E064F00D2B0C2B1000000D2B1000000C2B0B3
:04065D00C2B17A00AC
:03066100BA0600D6
:0606640050477B007C0002
:03066A00BC0400CD
:0E066D005017EB2BFDA2A2E433FE4DFB000064
:0B067B0000D2B1000000C2B10C80E40E
:0E068600EA24C0FCE434E7FD8B82C002C0040D
:0E069400C00512039BAB82D005D004D0028CAF
:0B06A200828D83EBF00000000A80B4A2
:0E06AD0090E7C67420F000000090E7C77428A4
:0E06BB00F000000090E7C87443F000000090CB
:0E06C900E7C97429F000000090E68F740AF073
:0406D70000000022FD
:0E06DB00E582FA24FF928590E7C0744FF0008C
:0E06E900000090E7C1744BF000000090E7C2E3
:0E06F7007420F000000090E7C37428F00000AB
:0E0705000090E7C47442F0000000EA60047A3D
:0307130031800230
:020716007A3037
:0E07180090E7C5EAF000000090E7C67429F0F3
:0D07260000000090E68F7407F00000002234
:0E073300E582FA24FF92B290E7C0744FF00006
:0E074100000090E7C1744BF000000090E7C28A
:0E074F007420F000000090E7C37428F0000052
:0E075D000090E7C47449F0000000EA60047ADE
:03076B00318002D8
:02076E007A30DF
:0E07700090E7C5EAF000000090E7C67429F09B
:0D077E0000000090E68F7407F000000022DC
:07078B0030A0047A31800266
:020792007A30BB
:0C07940090E7C0EAF0000000E5086004F7
:0407A0007A31800228
:0207A4007A30A9
:0E07A60090E7C1EAF000000030A1047A318033
:0107B4000242
:0207B5007A3098
:0E07B70090E7C2EAF00000003082047A318040
:0107C5000231
:0207C6007A3087
:0E07C80090E7C3EAF000000030A3047A31800D
:0107D6000220
:0207D7007A3076
:0E07D90090E7C4EAF0000000E5B130E5047AD4
:0307E7003180025C
:0207EA007A3063
:0E07EC0090E7C5EAF0000000E5A0C4540FF548
:0E07FA008212039BAA8290E7C6EAF00000007C
:0E08080090E7C77420F000000090E7C8742845
:0E081600F000000090E7C97453F0000000905D
:0E082400E7CA7429F000000090E68F740BF014
:0C08320000000075080075B00800000010
:07083E0000000053B0F72297
:0708450030A0047A318002AB
:02084C007A3000
:0C084E0090E7C0EAF0000000E50860043C
:04085A007A3180026D
:02085E007A30EE
:0E08600090E7C1EAF000000030A1047A318078
:01086E000287
:02086F007A30DD
:0E08710090E7C2EAF00000003082047A318085
:01087F000276
:020880007A30CC
:0E08820090E7C3EAF000000030A3047A318052
:010890000265
:020891007A30BB
:0E08930090E7C4EAF0000000E5B130E5047A19
:0308A100318002A1
:0208A4007A30A8
:0E08A60090E7C5EAF0000000E5A0C4540FF58D
:0E08B4008212039BAA8290E7C6EAF0000000C1
:0E08C20090E7C77420F000000090E7C874288B
:0E08D000F000000090E7C97450F000000090A6
:0E08DE00E7CA7429F000000090E68F740BF05A
:0408EC0000000022E6
:0A08F000AA82E509600475090022E0
:0408FA00EA7001227D
:0708FE00BA01047509012293
:0E090500740C5AFBBB0428EA30E10543B11024
:0209130080035F
:0309150053B1EFEC
:09091800EA30E00543B140800320
:0309210053B1BF10
:0E09240000000053B1F712013D43B10800007E
:020932000022A1
:0E09340074085AFBBB0848EA30E10543B110D5
:02094200800330
:0309440053B1EFBD
:09094700EA30E00543B1408003F1
:0309500053B1BFE1
:0E09530000000053B1F7C00212013DD0024374
:0D096100B108000000530204E4BA000104D4
:0B096E00FA742055B1FBE4BB0001044B
:07097900FBEAB50302800355
:03098000750801F6
:010983002251
:07098400AA827509007B0146
:0E098B00C3EB9A502CEB2480F582E434E7F5A0
:0E09990083E0FC740F5CF582C002C003C00452
:0E09A7001208F0D004ECC4540FF5821208F0D0
:0709B500D003D0020B80CF3C
:0109BC002218
:0E09BD0090E7C0744FF000000090E7C1744B4B
:0E09CB00F000000090E7C27420F000000090E1
:0E09D900E7C37428F000000090E7C47458F0E3
:0D09E70000000090E7C57429F000000090AA
:0E09F400E68F7406F000000090E68D74FFF0B0
:060A020000000002025892
:0E0A080090E68DE0FA90E780E0FBBB542BBA3D
:0E0A1600032890E781E0F5821203A7E582C471
:0E0A240054F0FC90E782E0F582C0041203A7B4
:0E0A3200AD82D004ED4CF5821203DD020B0301
:0C0A4000BB5209BA0106120473020B033A
:0D0A4C00BB5712BA020F90E781E0F582124D
:060A590003A71205EF02E5
:020A5F000B0387
:0C0A6100BB4309BA010612064F020B034A
:0E0A6D00BB4215BA021290E781E0FCE4BC31F6
:020A7B00010474
:080A7D00F5821206DB020B03F7
:0E0A8500BB4914BA021190E781E0FCE4BC31D9
:020A930001045C
:070A9500F5821207338067B0
:0B0A9C00BB5308BA010512078B805CF9
:0B0AA700BB5008BA0105120845805141
:0A0AB200BB4A078A821209848047BC
:080ABC00BB58051209BD803F83
:0E0AC40090E7C07445F000000090E7C1745246
:0E0AD200F000000090E7C27452F000000090A7
:0E0AE000E7C3744FF000000090E7C47452F0BA
:0D0AEE0000000090E7C57421F000000090AA
:080AFB00E68F7406F000000014
:0A0B030090E68D74FFF00000002260
:0E0B0D0090E690E0FB7A0090E691E0FC7D001F
:0E0B1B004202ED4203EA4B700A90E69174FF2D
:050B2900F000000022B5
:0E0B2E00E5BB30E7FB90E690E090E6D0F0905B
:0D0B3C00E691E090E6D1F090E691E4F090B3
:060B4900E6D474FFF02267
:0C0B4F0075080012019190E69174FFF00F
:0C0B5B0000000090E69174FFF000000024
:0E0B670090E6A1E0FA20E107D281120A08C24E
:010B750081FE
:0E0B760090E6A3E0FA20E2E9D280120B0DC255
:030B84008080E08E
:0E0BA700010101010101010700000000000032
:0E0BB5000000070707070707070700000000FA
:0E0BC3000000003F010101013F010107020493
:0E0BD1000000010000000603050307070707E8
:0E0BDF00000000003600003FFE01FE3801015C
:0E0BED000107000204010000000007060703D4
:0E0BFB00030303070000002D0000003F01016E
:0E0C0900013801010107020400010000000093
:0E0C170006030503030303070000002D000081
:020C2500003F8E
:0E0C27000000000000000000000000000000BF
:0E0C35000000000000000000000000000000B1
:080C43000000000000000000A9
:070C4B00E0000007EA4E0083
:0E0C520030313233343536373839414243447D
:030C600045460006
:070C63004F4B20285229002D
:06003700E478FFF6D8FD9D
:080015007900E94400601B7A48
:05001D0000900C6A7860
:030022000075A0C6
:0A00250020E493F2A308B8000205DE
:08002F00A0D9F4DAF275A0FF7C
:08003D007800E84400600A7934
:030045000075A0A3
:0600480020E4F309D8FCDE
:08004E007800E84400600C7921
:0B00560000902000E4F0A3D8FCD9FAD1
:03000800758109F6
:0A000B00120BA3E58260030200035C
:0E0B870020F71430F6148883A88220F507E6C4
:060B9500A8837583002215
:030B9B00E280F7FE
:030B9E00E49322BB
:020BA100E02250
:040BA3007582002235
:00000001FF
