:03000000020008F3
:0300610002000397
:0500030012096E80FEF1
:0D00640090E60174EAF090E6F574FFF0906C
:0E0071000A7CE49390E6F3F0900A7DE493900D
:0D007F00E6C3F0900A7EE49390E6C1F09095
:0E008C000A7FE49390E6C2F0900A81E493901C
:0E009A00E6C0F0900A82E49390E6F4F075AFB1
:0800A800077AD87B098B9A7AD4
:0A00B000D87B097B008A9B759DE454
:0500BA00759E007A00B4
:0300BF00BA800004
:0E00C200500C90E67BE0FB90E67CF00A80EFAD
:0E00D00090E67174FFF075B4FF90E672E0FAEE
:0E00DE004480F043B68000000090E6C4E4F0D9
:0E00EC0000000090E6C5E4F0900A58E49390FE
:0D00FA00E6C6F0900A59E49390E6C7F09036
:0E0107000A5AE49390E6C8F0900A5BE49390E5
:0D011500E6C9F0900A5CE49390E6CAF09011
:0E0122000A5DE49390E6CBF0900A5EE49390C1
:0D013000E6CCF0900A5FE49390E6CDF0225B
:0E013D000000000000000000000000000000B4
:0B014B00000000000000000000002287
:0D01560090E6007410F090E61274A8F0908E
:0D016300E613E4F090E614F090E615F0903D
:0E017000E6047480F000000090E6047402F0D3
:0D017E0000000090E6047404F00000009002
:0E018B00E6047406F000000090E6047408F02C
:0E01990000000090E604E4F000000090E6187C
:0E01A700E0FA54FEF000000090E619E0FA5471
:0E01B500FEF000000090E61AE0FA54FEF000A2
:0E01C300000090E61BE0FA54FEF0000000126F
:0E01D100006490E670E4F075B2237580009033
:0E01DF00E671E4F075B40075A00075B51F75EB
:0A01ED00B00075B65875B1587A00DD
:0301F700BA10003B
:0E01FA005013C00212013D53B1F712013DD067
:070208000243B1080A80E87F
:01020F0022CC
:0C021000AA82740F5A900A8393F5822290
:05021C00AA82BA3000C7
:0D022100400BEA24C64006EA24D0F58222F4
:03022E00BA6100B2
:0D023100400BEA2499400674A92AF58222A8
:03023E00BA4100C2
:0D024100400BEA24B9400674C92AF5822258
:04024E007582002293
:0E025200E582FA700B90E6C0744EF0000000DA
:02026000801903
:0E02620090E6C0744AF000000090E440EAF01C
:0B02700000000090E442EAF0000000F3
:0E027B0090E7C0744FF000000090E7C1744B94
:0E028900F000000090E7C27420F0000000902A
:0E029700E7C37428F000000090E7C47454F030
:0E02A500000000EAC4540FFB740F5BF582C02A
:0E02B30002120210AB82D00290E7C5EBF00001
:0D02C1000000740F5AF582120210AA8290FC
:0E02CE00E7C6EAF000000090E7C77429F000D0
:0C02DC00000090E68F7408F00000002283
:0502E80075B1587A0019
:0302ED00BA100044
:0E02F0005013C00212013D53B1F712013DD070
:0702FE000243B1080A80E889
:0C03050090E6C0744EF000000075080087
:0E03110075800075B01900000043B0020000B6
:06031F000075B0007A0039
:0A032500EA2494FBE4340AFC7D8016
:0E032F008B828C838DF01209B8FB6012EA24D9
:0E033D00C0F582E434E7F583EBF00000000A1F
:02034B0080D858
:09034D0090E68FEAF000000022A6
:0E035600AA8290E7C0744FF000000090E7C14B
:0E036400744BF000000090E7C27420F000001F
:0E0372000090E7C37428F000000090E7C47408
:0D03800057F00000008A82120210AA82903D
:0E038D00E7C5EAF000000090E7C67429F00012
:0C039B00000090E68F7407F000000022C4
:0E03A700AA8290E7C07454F000000090E7C1F5
:0E03B5007449F000000090E7C2744DF00000A3
:0E03C3000090E7C37445F000000090E7C4749A
:0E03D1004FF000000090E7C57455F0000000EA
:0E03DF0090E7C67454F000000090E7C7742148
:0E03ED00F000000090E7C87420F000000090BF
:0E03FB00E7C97453F000000090E7CA743DF0AB
:0D040900000000E5A0C4540FF582C00212EF
:0E0416000210AB82D00290E7CBEBF0000000AA
:0E04240090E7CC7420F000000090E7CD742823
:0E043200F000000090E7CE7457F00000008A42
:0E04400082120210AA8290E7CFEAF0000000BC
:0E044E0090E7D07429F000000090E68F741142
:05045C00F00000002289
:06046100AA827B007C0072
:0D046700C3EB94E8EC9403504C7D007E0044
:0E047400C3ED94E8EE94035038E5A0C4540F95
:09048200FFB502058A820203564F
:0E048B0090E6A3E0FF20E21BD280C002C00377
:0E049900C004C005C00612092CD006D005D044
:0704A70004D003D002C28063
:0704AE000DBD00C20E80BF6E
:0704B5000BBB00AE0C80AB95
:0504BC008A820203A783
:0E04C100D2B0C2B1000000D2B1000000C2B043
:0404CF00C2B17A003C
:0304D300BA060066
:0604D60050477B007C0092
:0304DC00BC04005D
:0E04DF005017EB2BFDA2A2E433FE4DFB0000F4
:0B04ED0000D2B1000000C2B10C80E49E
:0E04F800EA24C0FCE434E7FD8B82C002C0049D
:0E050600C005120210AB82D005D004D0028CCA
:0B051400828D83EBF00000000A80B431
:0E051F0090E7C67420F000000090E7C7742833
:0E052D00F000000090E7C87443F0000000905A
:0E053B00E7C97429F000000090E68F740AF002
:04054900000000228C
:0E054D00E582FA24FF928590E7C0744FF0001B
:0E055B00000090E7C1744BF000000090E7C272
:0E0569007420F000000090E7C37428F000003A
:0E0577000090E7C47442F0000000EA60047ACD
:03058500318002C0
:020588007A30C7
:0E058A0090E7C5EAF000000090E7C67429F083
:0D05980000000090E68F7407F000000022C4
:0E05A500E582FA24FF92B290E7C0744FF00096
:0E05B300000090E7C1744BF000000090E7C21A
:0E05C1007420F000000090E7C37428F00000E2
:0E05CF000090E7C47449F0000000EA60047A6E
:0305DD0031800268
:0205E0007A306F
:0E05E20090E7C5EAF000000090E7C67429F02B
:0D05F00000000090E68F7407F0000000226C
:0705FD0030A0047A318002F6
:020604007A304A
:0C06060090E7C0EAF0000000E508600486
:040612007A318002B7
:020616007A3038
:0E06180090E7C1EAF000000030A1047A3180C2
:0106260002D1
:020627007A3027
:0E06290090E7C2EAF00000003082047A3180CF
:0106370002C0
:020638007A3016
:0E063A0090E7C3EAF000000030A3047A31809C
:0106480002AF
:020649007A3005
:0E064B0090E7C4EAF0000000E5B130E5047A63
:03065900318002EB
:02065C007A30F2
:0E065E0090E7C5EAF0000000E5A0C4540FF5D7
:0E066C0082120210AA8290E7C6EAF000000097
:0E067A0090E7C77420F000000090E7C87428D5
:0E068800F000000090E7C97453F000000090ED
:0E069600E7CA7429F000000090E68F740BF0A4
:0C06A40000000075080075B008000000A0
:0706B00000000053B0F72227
:0706B70030A0047A3180023B
:0206BE007A3090
:0C06C00090E7C0EAF0000000E5086004CC
:0406CC007A318002FD
:0206D0007A307E
:0E06D20090E7C1EAF000000030A1047A318008
:0106E0000217
:0206E1007A306D
:0E06E30090E7C2EAF00000003082047A318015
:0106F1000206
:0206F2007A305C
:0E06F40090E7C3EAF000000030A3047A3180E2
:0107020002F4
:020703007A304A
:0E07050090E7C4EAF0000000E5B130E5047AA8
:0307130031800230
:020716007A3037
:0E07180090E7C5EAF0000000E5A0C4540FF51C
:0E07260082120210AA8290E7C6EAF0000000DC
:0E07340090E7C77420F000000090E7C874281A
:0E074200F000000090E7C97450F00000009035
:0E075000E7CA7429F000000090E68F740BF0E9
:04075E000000002275
:0A076200AA82E5096004750900226F
:04076C00EA7001220C
:07077000BA01047509012222
:0E077700740C5AFBBB0428EA30E10543B110B4
:020785008003EF
:0307870053B1EF7C
:09078A00EA30E00543B1408003B0
:0307930053B1BFA0
:0E07960000000053B1F712013D43B10800000E
:0207A400002231
:0E07A60074085AFBBB0848EA30E10543B11065
:0207B4008003C0
:0307B60053B1EF4D
:0907B900EA30E00543B140800381
:0307C20053B1BF71
:0E07C50000000053B1F7C00212013DD0024304
:0D07D300B108000000530204E4BA00010464
:0B07E000FA742055B1FBE4BB000104DB
:0707EB00FBEAB503028003E5
:0307F20075080186
:0107F50022E1
:0707F600AA827509007B01D6
:0E07FD00C3EB9A502CEB2480F582E434E7F530
:0E080B0083E0FC740F5CF582C002C003C004E1
:0E081900120762D004ECC4540FF5821207627D
:07082700D003D0020B80CFCB
:01082E0022A7
:0E082F0090E68DE0FA90E780E0FBBB542BBA18
:0E083D00032890E781E0F58212021CE582C4D8
:0E084B0054F0FC90E782E0F582C00412021C1B
:0E085900AD82D004ED4CF5821202520209224B
:0C086700BB5209BA01061202E802092285
:0D087300BB5712BA020F90E781E0F5821228
:06088000021C12046102DB
:02088600092245
:0C088800BB4309BA01061204C102092298
:0E089400BB4215BA021290E781E0FCE4BC31D1
:0208A20001044F
:0808A400F58212054D02092244
:0E08AC00BB4914BA021190E781E0FCE4BC31B4
:0208BA00010437
:0708BC00F5821205A5805F23
:0B08C300BB5308BA01051205FD80546C
:0B08CE00BB5008BA01051206B78049B4
:0A08D900BB4A078A821207F6803F2F
:0E08E30090E7C07445F000000090E7C1745229
:0E08F100F000000090E7C27452F0000000908A
:0E08FF00E7C3744FF000000090E7C47452F09D
:0D090D0000000090E7C57421F0000000908C
:08091A00E68F7406F0000000F6
:0A09220090E68D74FFF00000002243
:0E092C0090E690E0FB7A0090E691E0FC7D0002
:0E093A004202ED4203EA4B700A90E69174FF10
:05094800F00000002298
:0E094D00E5BB30E7FB90E690E090E6D0F0903E
:0D095B00E691E090E6D1F090E691E4F09096
:06096800E6D474FFF0224A
:0C096E0075080012015690E69174FFF02D
:0D097A0000000090E69174FFF00000009076
:0E098700E69174FFF000000090E69174FFF01E
:030995000000005F
:0E09980090E6A1E0FA20E107D28112082FC2FA
:0109A60081CF
:0E09A70090E6A3E0FA20E2E9D28012092CC209
:0309B5008080E05F
:0E09D800010101010101010700000000000003
:0E09E6000000070707070707070700000000CB
:0E09F4000000003F010101013F010107020464
:0E0A02000000010000000603050307070707B8
:0E0A1000000000003600003FFE01FE3801012C
:0E0A1E000107000204010000000007060703A4
:0E0A2C00030303070000002D0000003F01013E
:0E0A3A00013801010107020400010000000064
:0E0A480006030503030303070000002D000052
:020A5600003F5F
:0E0A5800000000000000000000000000000090
:0E0A6600000000000000000000000000000082
:080A740000000000000000007A
:070A7C00E0000007EA4E0054
:0E0A830030313233343536373839414243444E
:030A9100454600D7
:070A94004F4B2028522900FE
:06003700E478FFF6D8FD9D
:080015007900E94400601B7A48
:05001D0000900A9B7831
:030022000075A0C6
:0A00250020E493F2A308B8000205DE
:08002F00A0D9F4DAF275A0FF7C
:08003D007800E84400600A7934
:030045000075A0A3
:0600480020E4F309D8FCDE
:08004E007800E84400600C7921
:0B00560000902000E4F0A3D8FCD9FAD1
:03000800758109F6
:0A000B001209D4E58260030200032D
:0E09B80020F71430F6148883A88220F507E695
:0609C600A88375830022E6
:0309CC00E280F7CF
:0309CF00E493228C
:0209D200E02221
:0409D4007582002206
:00000001FF
