:03000000020008F3
:0300610002000397
:0500030012094980FE16
:0D00640090E60174EAF090E6F574FFF0906C
:0E0071000A57E49390E6F3F0900A58E4939057
:0D007F00E6C3F0900A59E49390E6C1F090BA
:0E008C000A5AE49390E6C2F0900A5CE4939066
:0E009A00E6C0F0900A5DE49390E6F4F075AFD6
:0800A800077AB37B098B9A7AF9
:0A00B000B37B097B008A9B759DE479
:0500BA00759E007A00B4
:0300BF00BA800004
:0E00C200500C90E67BE0FB90E67CF00A80EFAD
:0E00D00090E67174FFF075B4FF90E672E0FAEE
:0E00DE004480F043B68000000090E6C4E4F0D9
:0E00EC0000000090E6C5E4F0900A33E4939023
:0D00FA00E6C6F0900A34E49390E6C7F0905B
:0E0107000A35E49390E6C8F0900A36E493902F
:0D011500E6C9F0900A37E49390E6CAF09036
:0E0122000A38E49390E6CBF0900A39E493900B
:0D013000E6CCF0900A3AE49390E6CDF02280
:0D013D0090E6007410F090E61274A8F090A7
:0D014A00E613E4F090E614F090E615F09056
:0E015700E6047480F000000090E6047402F0EC
:0D01650000000090E6047404F0000000901B
:0E017200E6047406F000000090E6047408F045
:0E01800000000090E604E4F000000090E61895
:0E018E00E0FA54FEF000000090E619E0FA548A
:0E019C00FEF000000090E61AE0FA54FEF000BB
:0E01AA00000090E61BE0FA54FEF00000001288
:0E01B800006490E670E4F075B223758000904C
:0E01C600E671E4F075B40075A00075B51F7504
:0A01D400B00075B65875B1587A00F6
:0301DE00BA100054
:0E01E100500F53B1F700000043B108000000BA
:0301EF000A80EC97
:0101F20022EA
:0C01F300AA82740F5A900A5E93F58222D3
:0501FF00AA82BA3000E5
:0D020400400BEA24C64006EA24D0F5822211
:03021100BA6100CF
:0D021400400BEA2499400674A92AF58222C5
:03022100BA4100DF
:0D022400400BEA24B9400674C92AF5822275
:0402310075820022B0
:0E023500E582FA700B90E6C0744EF0000000F7
:02024300801920
:0E02450090E6C0744AF000000090E440EAF039
:0B02530000000090E442EAF000000010
:0E025E0090E7C0744FF000000090E7C1744BB1
:0E026C00F000000090E7C27420F00000009047
:0E027A00E7C37428F000000090E7C47454F04D
:0E028800000000EAC4540FFB740F5BF582C047
:0E029600021201F3AB82D00290E7C5EBF0003C
:0D02A4000000740F5AF5821201F3AA829037
:0E02B100E7C6EAF000000090E7C77429F000ED
:0C02BF00000090E68F7408F000000022A0
:0502CB0075B1587A0036
:0302D000BA100061
:0E02D300500F53B1F700000043B108000000C7
:0302E1000A80ECA4
:0C02E40090E6C0744EF0000000750800A9
:0E02F00075800075B01900000043B0020000D8
:0602FE000075B0007A005B
:0A030400EA246FFBE4340AFC7D805C
:0E030E008B828C838DF0120993FB6012EA241F
:0E031C00C0F582E434E7F583EBF00000000A40
:02032A0080D879
:09032C0090E68FEAF000000022C7
:0E033500AA8290E7C0744FF000000090E7C16C
:0E034300744BF000000090E7C27420F0000040
:0E0351000090E7C37428F000000090E7C47429
:0D035F0057F00000008A821201F3AA82907C
:0E036C00E7C5EAF000000090E7C67429F00033
:0C037A00000090E68F7407F000000022E5
:0E038600AA8290E7C07454F000000090E7C116
:0E0394007449F000000090E7C2744DF00000C4
:0E03A2000090E7C37445F000000090E7C474BB
:0E03B0004FF000000090E7C57455F00000000B
:0E03BE0090E7C67454F000000090E7C7742169
:0E03CC00F000000090E7C87420F000000090E0
:0E03DA00E7C97453F000000090E7CA743DF0CC
:0D03E800000000E5A0C4540FF582C0021211
:0E03F50001F3AB82D00290E7CBEBF0000000EA
:0E04030090E7CC7420F000000090E7CD742844
:0E041100F000000090E7CE7457F00000008A63
:0E041F00821201F3AA8290E7CFEAF0000000FB
:0E042D0090E7D07429F000000090E68F741163
:05043B00F000000022AA
:06044000AA827B007C0093
:0D044600C3EB94E8EC9403504C7D007E0065
:0E045300C3ED94E8EE94035038E5A0C4540FB6
:09046100FFB502058A8202033591
:0E046A0090E6A3E0FF20E21BD280C002C00398
:0E047800C004C005C006120907D006D005D08A
:0704860004D003D002C28084
:07048D000DBD00C20E80BF8F
:070494000BBB00AE0C80ABB6
:05049B008A82020386C5
:0E04A000D2B0C2B1000000D2B1000000C2B064
:0404AE00C2B17A005D
:0304B200BA060087
:0604B50050477B007C00B3
:0304BB00BC04007E
:0E04BE005017EB2BFDA2A2E433FE4DFB000015
:0B04CC0000D2B1000000C2B10C80E4BF
:0E04D700EA24C0FCE434E7FD8B82C002C004BE
:0E04E500C0051201F3AB82D005D004D0028C0A
:0B04F300828D83EBF00000000A80B453
:0E04FE0090E7C67420F000000090E7C7742855
:0E050C00F000000090E7C87443F0000000907B
:0E051A00E7C97429F000000090E68F740AF023
:0405280000000022AD
:0E052C00E582FA24FF928590E7C0744FF0003C
:0E053A00000090E7C1744BF000000090E7C293
:0E0548007420F000000090E7C37428F000005B
:0E0556000090E7C47442F0000000EA60047AEE
:03056400318002E1
:020567007A30E8
:0E05690090E7C5EAF000000090E7C67429F0A4
:0D05770000000090E68F7407F000000022E5
:0E058400E582FA24FF92B290E7C0744FF000B7
:0E059200000090E7C1744BF000000090E7C23B
:0E05A0007420F000000090E7C37428F0000003
:0E05AE000090E7C47449F0000000EA60047A8F
:0305BC0031800289
:0205BF007A3090
:0E05C10090E7C5EAF000000090E7C67429F04C
:0D05CF0000000090E68F7407F0000000228D
:0705DC0030A0047A31800217
:0205E3007A306C
:0C05E50090E7C0EAF0000000E5086004A8
:0405F1007A318002D9
:0205F5007A305A
:0E05F70090E7C1EAF000000030A1047A3180E4
:0106050002F2
:020606007A3048
:0E06080090E7C2EAF00000003082047A3180F0
:0106160002E1
:020617007A3037
:0E06190090E7C3EAF000000030A3047A3180BD
:0106270002D0
:020628007A3026
:0E062A0090E7C4EAF0000000E5B130E5047A84
:030638003180020C
:02063B007A3013
:0E063D0090E7C5EAF0000000E5A0C4540FF5F8
:0E064B00821201F3AA8290E7C6EAF0000000D6
:0E06590090E7C77420F000000090E7C87428F6
:0E066700F000000090E7C97453F0000000900E
:0E067500E7CA7429F000000090E68F740BF0C5
:0C06830000000075080075B008000000C1
:07068F0000000053B0F72248
:0706960030A0047A3180025C
:02069D007A30B1
:0C069F0090E7C0EAF0000000E5086004ED
:0406AB007A3180021E
:0206AF007A309F
:0E06B10090E7C1EAF000000030A1047A318029
:0106BF000238
:0206C0007A308E
:0E06C20090E7C2EAF00000003082047A318036
:0106D0000227
:0206D1007A307D
:0E06D30090E7C3EAF000000030A3047A318003
:0106E1000216
:0206E2007A306C
:0E06E40090E7C4EAF0000000E5B130E5047ACA
:0306F20031800252
:0206F5007A3059
:0E06F70090E7C5EAF0000000E5A0C4540FF53E
:0E070500821201F3AA8290E7C6EAF00000001B
:0E07130090E7C77420F000000090E7C874283B
:0E072100F000000090E7C97450F00000009056
:0E072F00E7CA7429F000000090E68F740BF00A
:04073D000000002296
:0A074100AA82E50960047509002290
:04074B00EA7001222D
:07074F00BA01047509012243
:0E075600740C5AFBBB0428EA30E10543B110D5
:02076400800310
:0307660053B1EF9D
:09076900EA30E00543B1408003D1
:0307720053B1BFC1
:0E07750000000053B1F700000043B10800007F
:02078300002252
:0E07850074085AFBBB0844EA30E10543B1108A
:020793008003E1
:0307950053B1EF6E
:09079800EA30E00543B1408003A2
:0307A10053B1BF92
:0E07A40000000053B1F700000043B108000050
:0907B20000530204E4BA00010442
:0B07BB00FA742055B1FBE4BB00010400
:0707C600FBEAB5030280030A
:0307CD00750801AB
:0107D0002206
:0707D100AA827509007B01FB
:0E07D800C3EB9A502CEB2480F582E434E7F555
:0E07E60083E0FC740F5CF582C002C003C00407
:0E07F400120741D004ECC4540FF582120741E5
:07080200D003D0020B80CFF0
:0108090022CC
:0E080A0090E68DE0FA90E780E0FBBB542BBA3D
:0E081800032890E781E0F5821201FFE582C41B
:0E08260054F0FC90E782E0F582C0041201FF5E
:0E083400AD82D004ED4CF5821202350208FDB3
:0C084200BB5209BA01061202CB0208FDED
:0D084E00BB5712BA020F90E781E0F582124D
:06085B0001FF120440023F
:0208610008FD90
:0C086300BB4309BA01061204A00208FD04
:0E086F00BB4215BA021290E781E0FCE4BC31F6
:02087D00010474
:08087F00F58212052C0208FDB0
:0E088700BB4914BA021190E781E0FCE4BC31D9
:0208950001045C
:07089700F582120584805F69
:0B089E00BB5308BA01051205DC8054B2
:0B08A900BB5008BA01051206968049FA
:0A08B400BB4A078A821207D1803F79
:0E08BE0090E7C07445F000000090E7C174524E
:0E08CC00F000000090E7C27452F000000090AF
:0E08DA00E7C3744FF000000090E7C47452F0C2
:0D08E80000000090E7C57421F000000090B2
:0808F500E68F7406F00000001C
:0A08FD0090E68D74FFF00000002269
:0E09070090E690E0FB7A0090E691E0FC7D0027
:0E0915004202ED4203EA4B700A90E69174FF35
:05092300F000000022BD
:0E092800E5BB30E7FB90E690E090E6D0F09063
:0D093600E691E090E6D1F090E691E4F090BB
:06094300E6D474FFF0226F
:0C09490075080012013D90E69174FFF06B
:0D09550000000090E69174FFF0000000909B
:0E096200E69174FFF000000090E69174FFF043
:0309700000000084
:0E09730090E6A1E0FA20E107D28112080AC244
:0109810081F4
:0E09820090E6A3E0FA20E2E9D280120907C253
:030990008080E084
:0E09B300010101010101010700000000000028
:0E09C1000000070707070707070700000000F0
:0E09CF000000003F010101013F010107020489
:0E09DD000000010000000603050307070707DE
:0E09EB00000000003600003FFE01FE38010152
:0E09F9000107000204010000000007060703CA
:0E0A0700030303070000002D0000003F010163
:0E0A1500013801010107020400010000000089
:0E0A230006030503030303070000002D000077
:020A3100003F84
:0E0A33000000000000000000000000000000B5
:0E0A41000000000000000000000000000000A7
:080A4F0000000000000000009F
:070A5700E0000007EA4E0079
:0E0A5E00303132333435363738394142434473
:030A6C00454600FC
:070A6F004F4B202852290023
:06003700E478FFF6D8FD9D
:080015007900E94400601B7A48
:05001D0000900A767856
:030022000075A0C6
:0A00250020E493F2A308B8000205DE
:08002F00A0D9F4DAF275A0FF7C
:08003D007800E84400600A7934
:030045000075A0A3
:0600480020E4F309D8FCDE
:08004E007800E84400600C7921
:0B00560000902000E4F0A3D8FCD9FAD1
:03000800758109F6
:0A000B001209AFE582600302000352
:0E09930020F71430F6148883A88220F507E6BA
:0609A100A883758300220B
:0309A700E280F7F4
:0309AA00E49322B1
:0209AD00E02246
:0409AF00758200222B
:00000001FF
