:03000000020008F3
:0300610002000397
:05000300120B4A80FE13
:0D00640090E60174EAF090E6F574FFF0906C
:0E0071000C58E49390E6F3F0900C59E4939051
:0D007F00E6C3F0900C5AE49390E6C1F090B7
:0E008C000C5BE49390E6C2F0900C5DE4939060
:0E009A00E6C0F0900C5EE49390E6F4F075AFD3
:0800A800077AB47B0B8B9A7AF6
:0A00B000B47B0B7B008A9B759DE476
:0500BA00759E007A00B4
:0300BF00BA800004
:0E00C200500C90E67BE0FB90E67CF00A80EFAD
:0E00D00090E67174FFF075B4FF90E672E0FAEE
:0E00DE004480F043B68000000090E6C4E4F0D9
:0E00EC0000000090E6C5E4F0900C34E4939020
:0D00FA00E6C6F0900C35E49390E6C7F09058
:0E0107000C36E49390E6C8F0900C37E4939029
:0D011500E6C9F0900C38E49390E6CAF09033
:0E0122000C39E49390E6CBF0900C3AE4939005
:0D013000E6CCF0900C3BE49390E6CDF0227D
:0E013D000000000000000000000000000000B4
:0B014B00000000000000000000002287
:04015600AA82AB834B
:09015A008A048B051ABAFF011B8F
:08016300EC4D60297C007D00D9
:0E016B00C3EC94E8ED940350E6C002C003C05C
:0E01790004C00512013DD005D004D003D00211
:0901870074032CFCE43DFD80DB57
:01019000224C
:0D01910090E6007410F090E61274A8F09053
:0D019E00E613E4F090E614F090E615F09002
:0E01AB00E6047480F000000090E6047402F098
:0D01B90000000090E6047404F000000090C7
:0E01C600E6047406F000000090E6047408F0F1
:0E01D40000000090E604E4F000000090E61841
:0E01E200E0FA54FEF000000090E619E0FA5436
:0E01F000FEF000000090E61AE0FA54FEF00067
:0E01FE00000090E61BE0FA54FEF00000001234
:0E020C00006490E670E4F075B22B75800090EF
:0E021A00E671E4F075B40075A00075B51F75AF
:0E022800B000D28390006412015675B658756E
:04023600B1587A0041
:03023A00BA1000F7
:0E023D005013C00212013D53B1F712013DD023
:07024B000243B1080A80E83C
:010252002289
:0E025300C28390006412015690E6F574FFF02D
:0D02610000000090E6007402F00000009024
:0E026E00E6017480F000000090E61274A2F029
:0D027C0000000090E61374A0F00000009058
:0E028900E61474A2F000000090E61574A0F0D8
:0D02970000000090E6187405F000000090D3
:0E02A400E6197405F000000090E61A7405F0EB
:0D02B20000000090E61B7405F000000090B5
:0E02BF00E6047480F000000090E6047402F083
:0D02CD0000000090E6047404F000000090B2
:0E02DA00E6047406F000000090E6047408F0DC
:0E02E80000000090E604E4F0000000758000C5
:0E02F60075A00075B00075B10075B20075B44A
:0D0304000075B50075B60090E670E4F0904D
:0A031100E671F075B2017A007B007E
:0E031B00C3EA9403EB9400504BD2807CB87D73
:010329000BC8
:0E032A00C002C003C004C00512013DD005D0C2
:0A03380004D003D0021CBCFF011D1D
:0A034200EC4D70E4C2817CB87D0B25
:0E034C00C002C003C004C00512013DD005D0A0
:0A035A0004D003D0021CBCFF011DFB
:0B036400EC4D70E40ABA00AF0B80AC57
:03036F0075B20064
:0E03720090E6A1E0FA20E10990E68D74FFF01C
:030380000000007A
:0E03830090E6A3E0FA20E2E790E69174FFF026
:0503910000000080DC0B
:0C039600AA82740F5A900C5F93F582222B
:0503A200AA82BA300040
:0D03A700400BEA24C64006EA24D0F582226D
:0303B400BA61002B
:0D03B700400BEA2499400674A92AF5822221
:0303C400BA41003B
:0D03C700400BEA24B9400674C92AF58222D1
:0403D400758200220C
:0E03D800E582FA700B90E6C0744EF000000053
:0203E60080197C
:0E03E80090E6C0744AF000000090E440EAF095
:0B03F60000000090E442EAF00000006C
:0E04010090E7C0744FF000000090E7C1744B0C
:0E040F00F000000090E7C27420F000000090A2
:0E041D00E7C37428F000000090E7C47454F0A8
:0E042B00000000EAC4540FFB740F5BF582C0A2
:0E04390002120396AB82D00290E7C5EBF000F2
:0D0447000000740F5AF582120396AA8290ED
:0E045400E7C6EAF000000090E7C77429F00048
:0C046200000090E68F7408F000000022FB
:05046E0075B1587A0091
:03047300BA1000BC
:0E0476005013C00212013D53B1F712013DD0E8
:070484000243B1080A80E801
:0C048B0090E6C0744EF000000075080000
:0E049700C285C281C28075B01900000043B05A
:0904A5000200000075B0007A00AD
:0A04AE00EA2470FBE4340CFC7D80AE
:0E04B8008B828C838DF0120B94FB6012EA2471
:0E04C600C0F582E434E7F583EBF00000000A95
:0204D40080D8CE
:0904D60090E68FEAF0000000221C
:0E04DF00AA8290E7C0744FF000000090E7C1C1
:0E04ED00744BF000000090E7C27420F0000095
:0E04FB000090E7C37428F000000090E7C4747E
:0D05090057F00000008A82120396AA82902B
:0E051600E7C5EAF000000090E7C67429F00087
:0C052400000090E68F7407F00000002239
:0E053000AA8290E7C07454F000000090E7C16A
:0E053E007449F000000090E7C2744DF0000018
:0E054C000090E7C37445F000000090E7C4740F
:0E055A004FF000000090E7C57455F00000005F
:0E05680090E7C67454F000000090E7C77421BD
:0E057600F000000090E7C87420F00000009034
:0E058400E7C97453F000000090E7CA743DF020
:0D059200000000E5A0C4540FF582C0021265
:0E059F000396AB82D00290E7CBEBF000000099
:0E05AD0090E7CC7420F000000090E7CD742899
:0E05BB00F000000090E7CE7457F00000008AB8
:0E05C90082120396AA8290E7CFEAF0000000AB
:0E05D70090E7D07429F000000090E68F7411B8
:0505E500F000000022FF
:0605EA00AA827B007C00E8
:0D05F000C3EB94E8EC9403504C7D007E00BA
:0E05FD00C3ED94E8EE94035038E5A0C4540F0B
:09060B00FFB502058A820204DF3A
:0E06140090E6A3E0FF20E21BD280C002C003EC
:0E062200C004C005C006120B08D006D005D0DB
:0706300004D003D002C280D8
:070637000DBD00C20E80BFE3
:07063E000BBB00AE0C80AB0A
:050645008A820205306D
:0E064A00D2B0C2B1000000D2B1000000C2B0B8
:04065800C2B17A00B1
:03065C00BA0600DB
:06065F0050477B007C0007
:03066500BC0400D2
:0E0668005017EB2BFDA2A2E433FE4DFB000069
:0B06760000D2B1000000C2B10C80E413
:0E068100EA24C0FCE434E7FD8B82C002C00412
:0E068F00C005120396AB82D005D004D0028CB9
:0B069D00828D83EBF00000000A80B4A7
:0E06A80090E7C67420F000000090E7C77428A9
:0E06B600F000000090E7C87443F000000090D0
:0E06C400E7C97429F000000090E68F740AF078
:0406D2000000002202
:0E06D600E582FA24FF928590E7C0744FF00091
:0E06E400000090E7C1744BF000000090E7C2E8
:0E06F2007420F000000090E7C37428F00000B0
:0E0700000090E7C47442F0000000EA60047A42
:03070E0031800235
:020711007A303C
:0E07130090E7C5EAF000000090E7C67429F0F8
:0D07210000000090E68F7407F00000002239
:0E072E00E582FA24FF92B290E7C0744FF0000B
:0E073C00000090E7C1744BF000000090E7C28F
:0E074A007420F000000090E7C37428F0000057
:0E0758000090E7C47449F0000000EA60047AE3
:03076600318002DD
:020769007A30E4
:0E076B0090E7C5EAF000000090E7C67429F0A0
:0D07790000000090E68F7407F000000022E1
:0707860030A0047A3180026B
:02078D007A30C0
:0C078F0090E7C0EAF0000000E5086004FC
:04079B007A3180022D
:02079F007A30AE
:0E07A10090E7C1EAF000000030A1047A318038
:0107AF000247
:0207B0007A309D
:0E07B20090E7C2EAF00000003082047A318045
:0107C0000236
:0207C1007A308C
:0E07C30090E7C3EAF000000030A3047A318012
:0107D1000225
:0207D2007A307B
:0E07D40090E7C4EAF0000000E5B130E5047AD9
:0307E20031800261
:0207E5007A3068
:0E07E70090E7C5EAF0000000E5A0C4540FF54D
:0E07F50082120396AA8290E7C6EAF000000086
:0E08030090E7C77420F000000090E7C874284A
:0E081100F000000090E7C97453F00000009062
:0E081F00E7CA7429F000000090E68F740BF019
:0C082D0000000075080075B00800000015
:0708390000000053B0F7229C
:0708400030A0047A318002B0
:020847007A3005
:0C08490090E7C0EAF0000000E508600441
:040855007A31800272
:020859007A30F3
:0E085B0090E7C1EAF000000030A1047A31807D
:01086900028C
:02086A007A30E2
:0E086C0090E7C2EAF00000003082047A31808A
:01087A00027B
:02087B007A30D1
:0E087D0090E7C3EAF000000030A3047A318057
:01088B00026A
:02088C007A30C0
:0E088E0090E7C4EAF0000000E5B130E5047A1E
:03089C00318002A6
:02089F007A30AD
:0E08A10090E7C5EAF0000000E5A0C4540FF592
:0E08AF0082120396AA8290E7C6EAF0000000CB
:0E08BD0090E7C77420F000000090E7C8742890
:0E08CB00F000000090E7C97450F000000090AB
:0E08D900E7CA7429F000000090E68F740BF05F
:0408E70000000022EB
:0A08EB00AA82E509600475090022E5
:0408F500EA70012282
:0708F900BA01047509012298
:0E090000740C5AFBBB0428EA30E10543B11029
:02090E00800364
:0309100053B1EFF1
:09091300EA30E00543B140800325
:03091C0053B1BF15
:0E091F0000000053B1F712013D43B108000083
:02092D000022A6
:0E092F0074085AFBBB0848EA30E10543B110DA
:02093D00800335
:03093F0053B1EFC2
:09094200EA30E00543B1408003F6
:03094B0053B1BFE6
:0E094E0000000053B1F7C00212013DD0024379
:0D095C00B108000000530204E4BA000104D9
:0B096900FA742055B1FBE4BB00010450
:07097400FBEAB5030280035A
:03097B00750801FB
:01097E002256
:07097F00AA827509007B014B
:0E098600C3EB9A502CEB2480F582E434E7F5A5
:0E09940083E0FC740F5CF582C002C003C00457
:0E09A2001208EBD004ECC4540FF5821208EBDF
:0709B000D003D0020B80CF41
:0109B700221D
:0E09B80090E7C0744FF000000090E7C1744B50
:0E09C600F000000090E7C27420F000000090E6
:0E09D400E7C37428F000000090E7C47458F0E8
:0D09E20000000090E7C57429F000000090AF
:0E09EF00E68F7406F000000090E68D74FFF0B5
:0609FD000000000202539D
:0E0A030090E68DE0FA90E780E0FBBB542BBA42
:0E0A1100032890E781E0F5821203A2E582C47B
:0E0A1F0054F0FC90E782E0F582C0041203A2BE
:0E0A2D00AD82D004ED4CF5821203D8020AFE11
:0C0A3B00BB5209BA010612046E020AFE4A
:0D0A4700BB5712BA020F90E781E0F5821252
:060A540003A21205EA02F4
:020A5A000AFE92
:0C0A5C00BB4309BA010612064A020AFE5A
:0E0A6800BB4215BA021290E781E0FCE4BC31FB
:020A7600010479
:080A7800F5821206D6020AFE07
:0E0A8000BB4914BA021190E781E0FCE4BC31DE
:020A8E00010461
:070A9000F58212072E8067BA
:0B0A9700BB5308BA0105120786805C03
:0B0AA200BB5008BA010512084080514B
:0A0AAD00BB4A078A8212097F8047C6
:080AB700BB58051209B8803F8D
:0E0ABF0090E7C07445F000000090E7C174524B
:0E0ACD00F000000090E7C27452F000000090AC
:0E0ADB00E7C3744FF000000090E7C47452F0BF
:0D0AE90000000090E7C57421F000000090AF
:080AF600E68F7406F000000019
:0A0AFE0090E68D74FFF00000002266
:0E0B080090E690E0FB7A0090E691E0FC7D0024
:0E0B16004202ED4203EA4B700A90E69174FF32
:050B2400F000000022BA
:0E0B2900E5BB30E7FB90E690E090E6D0F09060
:0D0B3700E691E090E6D1F090E691E4F090B8
:060B4400E6D474FFF0226C
:0C0B4A0075080012019190E69174FFF014
:0D0B560000000090E69174FFF00000009098
:0E0B6300E69174FFF000000090E69174FFF040
:030B710000000081
:0E0B740090E6A1E0FA20E107D281120A03C246
:010B820081F1
:0E0B830090E6A3E0FA20E2E9D280120B08C24D
:030B91008080E081
:0E0BB400010101010101010700000000000025
:0E0BC2000000070707070707070700000000ED
:0E0BD0000000003F010101013F010107020486
:0E0BDE000000010000000603050307070707DB
:0E0BEC00000000003600003FFE01FE3801014F
:0E0BFA000107000204010000000007060703C7
:0E0C0800030303070000002D0000003F010160
:0E0C1600013801010107020400010000000086
:0E0C240006030503030303070000002D000074
:020C3200003F81
:0E0C34000000000000000000000000000000B2
:0E0C42000000000000000000000000000000A4
:080C500000000000000000009C
:070C5800E0000007EA4E0076
:0E0C5F00303132333435363738394142434470
:030C6D00454600F9
:070C70004F4B202852290020
:06003700E478FFF6D8FD9D
:080015007900E94400601B7A48
:05001D0000900C777853
:030022000075A0C6
:0A00250020E493F2A308B8000205DE
:08002F00A0D9F4DAF275A0FF7C
:08003D007800E84400600A7934
:030045000075A0A3
:0600480020E4F309D8FCDE
:08004E007800E84400600C7921
:0B00560000902000E4F0A3D8FCD9FAD1
:03000800758109F6
:0A000B00120BB0E58260030200034F
:0E0B940020F71430F6148883A88220F507E6B7
:060BA200A8837583002208
:030BA800E280F7F1
:030BAB00E49322AE
:020BAE00E02243
:040BB0007582002228
:00000001FF
